{
  "_format": "hh-sol-artifact-1",
  "contractName": "AuctionNFT",
  "sourceName": "contracts/AuctionNFT.sol",
  "abi": [
    {
      "inputs": [
        {
          "internalType": "address",
          "name": "defaultAdmin",
          "type": "address"
        }
      ],
      "stateMutability": "nonpayable",
      "type": "constructor"
    },
    {
      "inputs": [],
      "name": "AccessControlBadConfirmation",
      "type": "error"
    },
    {
      "inputs": [
        {
          "internalType": "address",
          "name": "account",
          "type": "address"
        },
        {
          "internalType": "bytes32",
          "name": "neededRole",
          "type": "bytes32"
        }
      ],
      "name": "AccessControlUnauthorizedAccount",
      "type": "error"
    },
    {
      "inputs": [],
      "name": "ERC721EnumerableForbiddenBatchMint",
      "type": "error"
    },
    {
      "inputs": [
        {
          "internalType": "address",
          "name": "sender",
          "type": "address"
        },
        {
          "internalType": "uint256",
          "name": "tokenId",
          "type": "uint256"
        },
        {
          "internalType": "address",
          "name": "owner",
          "type": "address"
        }
      ],
      "name": "ERC721IncorrectOwner",
      "type": "error"
    },
    {
      "inputs": [
        {
          "internalType": "address",
          "name": "operator",
          "type": "address"
        },
        {
          "internalType": "uint256",
          "name": "tokenId",
          "type": "uint256"
        }
      ],
      "name": "ERC721InsufficientApproval",
      "type": "error"
    },
    {
      "inputs": [
        {
          "internalType": "address",
          "name": "approver",
          "type": "address"
        }
      ],
      "name": "ERC721InvalidApprover",
      "type": "error"
    },
    {
      "inputs": [
        {
          "internalType": "address",
          "name": "operator",
          "type": "address"
        }
      ],
      "name": "ERC721InvalidOperator",
      "type": "error"
    },
    {
      "inputs": [
        {
          "internalType": "address",
          "name": "owner",
          "type": "address"
        }
      ],
      "name": "ERC721InvalidOwner",
      "type": "error"
    },
    {
      "inputs": [
        {
          "internalType": "address",
          "name": "receiver",
          "type": "address"
        }
      ],
      "name": "ERC721InvalidReceiver",
      "type": "error"
    },
    {
      "inputs": [
        {
          "internalType": "address",
          "name": "sender",
          "type": "address"
        }
      ],
      "name": "ERC721InvalidSender",
      "type": "error"
    },
    {
      "inputs": [
        {
          "internalType": "uint256",
          "name": "tokenId",
          "type": "uint256"
        }
      ],
      "name": "ERC721NonexistentToken",
      "type": "error"
    },
    {
      "inputs": [
        {
          "internalType": "address",
          "name": "owner",
          "type": "address"
        },
        {
          "internalType": "uint256",
          "name": "index",
          "type": "uint256"
        }
      ],
      "name": "ERC721OutOfBoundsIndex",
      "type": "error"
    },
    {
      "anonymous": false,
      "inputs": [
        {
          "indexed": true,
          "internalType": "address",
          "name": "owner",
          "type": "address"
        },
        {
          "indexed": true,
          "internalType": "address",
          "name": "approved",
          "type": "address"
        },
        {
          "indexed": true,
          "internalType": "uint256",
          "name": "tokenId",
          "type": "uint256"
        }
      ],
      "name": "Approval",
      "type": "event"
    },
    {
      "anonymous": false,
      "inputs": [
        {
          "indexed": true,
          "internalType": "address",
          "name": "owner",
          "type": "address"
        },
        {
          "indexed": true,
          "internalType": "address",
          "name": "operator",
          "type": "address"
        },
        {
          "indexed": false,
          "internalType": "bool",
          "name": "approved",
          "type": "bool"
        }
      ],
      "name": "ApprovalForAll",
      "type": "event"
    },
    {
      "anonymous": false,
      "inputs": [
        {
          "indexed": false,
          "internalType": "uint256",
          "name": "_fromTokenId",
          "type": "uint256"
        },
        {
          "indexed": false,
          "internalType": "uint256",
          "name": "_toTokenId",
          "type": "uint256"
        }
      ],
      "name": "BatchMetadataUpdate",
      "type": "event"
    },
    {
      "anonymous": false,
      "inputs": [
        {
          "indexed": true,
          "internalType": "uint256",
          "name": "tokenId",
          "type": "uint256"
        },
        {
          "indexed": true,
          "internalType": "address",
          "name": "owner",
          "type": "address"
        },
        {
          "indexed": false,
          "internalType": "string",
          "name": "auctionId",
          "type": "string"
        },
        {
          "indexed": false,
          "internalType": "string",
          "name": "metadataUri",
          "type": "string"
        }
      ],
      "name": "CertificateMinted",
      "type": "event"
    },
    {
      "anonymous": false,
      "inputs": [
        {
          "indexed": false,
          "internalType": "uint256",
          "name": "_tokenId",
          "type": "uint256"
        }
      ],
      "name": "MetadataUpdate",
      "type": "event"
    },
    {
      "anonymous": false,
      "inputs": [
        {
          "indexed": true,
          "internalType": "uint256",
          "name": "tokenId",
          "type": "uint256"
        },
        {
          "indexed": true,
          "internalType": "address",
          "name": "from",
          "type": "address"
        },
        {
          "indexed": true,
          "internalType": "address",
          "name": "to",
          "type": "address"
        }
      ],
      "name": "OwnershipTransferred",
      "type": "event"
    },
    {
      "anonymous": false,
      "inputs": [
        {
          "indexed": true,
          "internalType": "uint256",
          "name": "tokenId",
          "type": "uint256"
        },
        {
          "indexed": true,
          "internalType": "address",
          "name": "previousOwner",
          "type": "address"
        },
        {
          "indexed": true,
          "internalType": "address",
          "name": "newOwner",
          "type": "address"
        },
        {
          "indexed": false,
          "internalType": "uint256",
          "name": "salePrice",
          "type": "uint256"
        },
        {
          "indexed": false,
          "internalType": "uint256",
          "name": "timestamp",
          "type": "uint256"
        },
        {
          "indexed": false,
          "internalType": "string",
          "name": "notes",
          "type": "string"
        }
      ],
      "name": "ProvenanceRecorded",
      "type": "event"
    },
    {
      "anonymous": false,
      "inputs": [
        {
          "indexed": true,
          "internalType": "bytes32",
          "name": "role",
          "type": "bytes32"
        },
        {
          "indexed": true,
          "internalType": "bytes32",
          "name": "previousAdminRole",
          "type": "bytes32"
        },
        {
          "indexed": true,
          "internalType": "bytes32",
          "name": "newAdminRole",
          "type": "bytes32"
        }
      ],
      "name": "RoleAdminChanged",
      "type": "event"
    },
    {
      "anonymous": false,
      "inputs": [
        {
          "indexed": true,
          "internalType": "bytes32",
          "name": "role",
          "type": "bytes32"
        },
        {
          "indexed": true,
          "internalType": "address",
          "name": "account",
          "type": "address"
        },
        {
          "indexed": true,
          "internalType": "address",
          "name": "sender",
          "type": "address"
        }
      ],
      "name": "RoleGranted",
      "type": "event"
    },
    {
      "anonymous": false,
      "inputs": [
        {
          "indexed": true,
          "internalType": "bytes32",
          "name": "role",
          "type": "bytes32"
        },
        {
          "indexed": true,
          "internalType": "address",
          "name": "account",
          "type": "address"
        },
        {
          "indexed": true,
          "internalType": "address",
          "name": "sender",
          "type": "address"
        }
      ],
      "name": "RoleRevoked",
      "type": "event"
    },
    {
      "anonymous": false,
      "inputs": [
        {
          "indexed": true,
          "internalType": "uint256",
          "name": "tokenId",
          "type": "uint256"
        },
        {
          "indexed": false,
          "internalType": "string",
          "name": "auctionId",
          "type": "string"
        }
      ],
      "name": "TokenLocked",
      "type": "event"
    },
    {
      "anonymous": false,
      "inputs": [
        {
          "indexed": true,
          "internalType": "uint256",
          "name": "tokenId",
          "type": "uint256"
        },
        {
          "indexed": false,
          "internalType": "string",
          "name": "auctionId",
          "type": "string"
        }
      ],
      "name": "TokenUnlocked",
      "type": "event"
    },
    {
      "anonymous": false,
      "inputs": [
        {
          "indexed": true,
          "internalType": "address",
          "name": "from",
          "type": "address"
        },
        {
          "indexed": true,
          "internalType": "address",
          "name": "to",
          "type": "address"
        },
        {
          "indexed": true,
          "internalType": "uint256",
          "name": "tokenId",
          "type": "uint256"
        }
      ],
      "name": "Transfer",
      "type": "event"
    },
    {
      "inputs": [],
      "name": "AUCTION_MANAGER_ROLE",
      "outputs": [
        {
          "internalType": "bytes32",
          "name": "",
          "type": "bytes32"
        }
      ],
      "stateMutability": "view",
      "type": "function"
    },
    {
      "inputs": [],
      "name": "DEFAULT_ADMIN_ROLE",
      "outputs": [
        {
          "internalType": "bytes32",
          "name": "",
          "type": "bytes32"
        }
      ],
      "stateMutability": "view",
      "type": "function"
    },
    {
      "inputs": [],
      "name": "MINTER_ROLE",
      "outputs": [
        {
          "internalType": "bytes32",
          "name": "",
          "type": "bytes32"
        }
      ],
      "stateMutability": "view",
      "type": "function"
    },
    {
      "inputs": [
        {
          "internalType": "address",
          "name": "to",
          "type": "address"
        },
        {
          "internalType": "uint256",
          "name": "tokenId",
          "type": "uint256"
        }
      ],
      "name": "approve",
      "outputs": [],
      "stateMutability": "nonpayable",
      "type": "function"
    },
    {
      "inputs": [
        {
          "internalType": "address",
          "name": "owner",
          "type": "address"
        }
      ],
      "name": "balanceOf",
      "outputs": [
        {
          "internalType": "uint256",
          "name": "",
          "type": "uint256"
        }
      ],
      "stateMutability": "view",
      "type": "function"
    },
    {
      "inputs": [
        {
          "internalType": "uint256",
          "name": "tokenId",
          "type": "uint256"
        }
      ],
      "name": "getApproved",
      "outputs": [
        {
          "internalType": "address",
          "name": "",
          "type": "address"
        }
      ],
      "stateMutability": "view",
      "type": "function"
    },
    {
      "inputs": [
        {
          "internalType": "uint256",
          "name": "tokenId",
          "type": "uint256"
        }
      ],
      "name": "getAuctionId",
      "outputs": [
        {
          "internalType": "string",
          "name": "",
          "type": "string"
        }
      ],
      "stateMutability": "view",
      "type": "function"
    },
    {
      "inputs": [
        {
          "internalType": "uint256",
          "name": "tokenId",
          "type": "uint256"
        }
      ],
      "name": "getLockedByAuction",
      "outputs": [
        {
          "internalType": "string",
          "name": "",
          "type": "string"
        }
      ],
      "stateMutability": "view",
      "type": "function"
    },
    {
      "inputs": [
        {
          "internalType": "uint256",
          "name": "tokenId",
          "type": "uint256"
        }
      ],
      "name": "getProductId",
      "outputs": [
        {
          "internalType": "string",
          "name": "",
          "type": "string"
        }
      ],
      "stateMutability": "view",
      "type": "function"
    },
    {
      "inputs": [
        {
          "internalType": "uint256",
          "name": "tokenId",
          "type": "uint256"
        }
      ],
      "name": "getProvenanceChain",
      "outputs": [
        {
          "internalType": "bytes32[]",
          "name": "",
          "type": "bytes32[]"
        }
      ],
      "stateMutability": "view",
      "type": "function"
    },
    {
      "inputs": [
        {
          "internalType": "uint256",
          "name": "tokenId",
          "type": "uint256"
        }
      ],
      "name": "getProvenanceCount",
      "outputs": [
        {
          "internalType": "uint256",
          "name": "",
          "type": "uint256"
        }
      ],
      "stateMutability": "view",
      "type": "function"
    },
    {
      "inputs": [
        {
          "internalType": "uint256",
          "name": "tokenId",
          "type": "uint256"
        }
      ],
      "name": "getProvenanceHistory",
      "outputs": [
        {
          "components": [
            {
              "internalType": "address",
              "name": "previousOwner",
              "type": "address"
            },
            {
              "internalType": "address",
              "name": "newOwner",
              "type": "address"
            },
            {
              "internalType": "uint256",
              "name": "salePrice",
              "type": "uint256"
            },
            {
              "internalType": "uint256",
              "name": "timestamp",
              "type": "uint256"
            },
            {
              "internalType": "string",
              "name": "notes",
              "type": "string"
            }
          ],
          "internalType": "struct AuctionNFT.ProvenanceRecord[]",
          "name": "",
          "type": "tuple[]"
        }
      ],
      "stateMutability": "view",
      "type": "function"
    },
    {
      "inputs": [
        {
          "internalType": "bytes32",
          "name": "role",
          "type": "bytes32"
        }
      ],
      "name": "getRoleAdmin",
      "outputs": [
        {
          "internalType": "bytes32",
          "name": "",
          "type": "bytes32"
        }
      ],
      "stateMutability": "view",
      "type": "function"
    },
    {
      "inputs": [
        {
          "internalType": "bytes32",
          "name": "role",
          "type": "bytes32"
        },
        {
          "internalType": "address",
          "name": "account",
          "type": "address"
        }
      ],
      "name": "grantRole",
      "outputs": [],
      "stateMutability": "nonpayable",
      "type": "function"
    },
    {
      "inputs": [
        {
          "internalType": "bytes32",
          "name": "role",
          "type": "bytes32"
        },
        {
          "internalType": "address",
          "name": "account",
          "type": "address"
        }
      ],
      "name": "hasRole",
      "outputs": [
        {
          "internalType": "bool",
          "name": "",
          "type": "bool"
        }
      ],
      "stateMutability": "view",
      "type": "function"
    },
    {
      "inputs": [
        {
          "internalType": "address",
          "name": "owner",
          "type": "address"
        },
        {
          "internalType": "address",
          "name": "operator",
          "type": "address"
        }
      ],
      "name": "isApprovedForAll",
      "outputs": [
        {
          "internalType": "bool",
          "name": "",
          "type": "bool"
        }
      ],
      "stateMutability": "view",
      "type": "function"
    },
    {
      "inputs": [
        {
          "internalType": "uint256",
          "name": "tokenId",
          "type": "uint256"
        }
      ],
      "name": "isLocked",
      "outputs": [
        {
          "internalType": "bool",
          "name": "",
          "type": "bool"
        }
      ],
      "stateMutability": "view",
      "type": "function"
    },
    {
      "inputs": [
        {
          "internalType": "uint256",
          "name": "tokenId",
          "type": "uint256"
        },
        {
          "internalType": "string",
          "name": "auctionId",
          "type": "string"
        }
      ],
      "name": "lockForAuction",
      "outputs": [],
      "stateMutability": "nonpayable",
      "type": "function"
    },
    {
      "inputs": [
        {
          "internalType": "address",
          "name": "to",
          "type": "address"
        },
        {
          "internalType": "string",
          "name": "uri",
          "type": "string"
        },
        {
          "internalType": "string",
          "name": "auctionId",
          "type": "string"
        }
      ],
      "name": "mint",
      "outputs": [
        {
          "internalType": "uint256",
          "name": "",
          "type": "uint256"
        }
      ],
      "stateMutability": "nonpayable",
      "type": "function"
    },
    {
      "inputs": [
        {
          "internalType": "address",
          "name": "to",
          "type": "address"
        },
        {
          "internalType": "string",
          "name": "uri",
          "type": "string"
        },
        {
          "internalType": "string",
          "name": "auctionId",
          "type": "string"
        },
        {
          "internalType": "string",
          "name": "productId",
          "type": "string"
        }
      ],
      "name": "mintWithProduct",
      "outputs": [
        {
          "internalType": "uint256",
          "name": "",
          "type": "uint256"
        }
      ],
      "stateMutability": "nonpayable",
      "type": "function"
    },
    {
      "inputs": [],
      "name": "name",
      "outputs": [
        {
          "internalType": "string",
          "name": "",
          "type": "string"
        }
      ],
      "stateMutability": "view",
      "type": "function"
    },
    {
      "inputs": [
        {
          "internalType": "uint256",
          "name": "tokenId",
          "type": "uint256"
        }
      ],
      "name": "ownerOf",
      "outputs": [
        {
          "internalType": "address",
          "name": "",
          "type": "address"
        }
      ],
      "stateMutability": "view",
      "type": "function"
    },
    {
      "inputs": [
        {
          "internalType": "uint256",
          "name": "tokenId",
          "type": "uint256"
        },
        {
          "internalType": "address",
          "name": "previousOwner",
          "type": "address"
        },
        {
          "internalType": "address",
          "name": "newOwner",
          "type": "address"
        },
        {
          "internalType": "uint256",
          "name": "salePrice",
          "type": "uint256"
        },
        {
          "internalType": "string",
          "name": "notes",
          "type": "string"
        }
      ],
      "name": "recordProvenance",
      "outputs": [],
      "stateMutability": "nonpayable",
      "type": "function"
    },
    {
      "inputs": [
        {
          "internalType": "bytes32",
          "name": "role",
          "type": "bytes32"
        },
        {
          "internalType": "address",
          "name": "callerConfirmation",
          "type": "address"
        }
      ],
      "name": "renounceRole",
      "outputs": [],
      "stateMutability": "nonpayable",
      "type": "function"
    },
    {
      "inputs": [
        {
          "internalType": "bytes32",
          "name": "role",
          "type": "bytes32"
        },
        {
          "internalType": "address",
          "name": "account",
          "type": "address"
        }
      ],
      "name": "revokeRole",
      "outputs": [],
      "stateMutability": "nonpayable",
      "type": "function"
    },
    {
      "inputs": [
        {
          "internalType": "address",
          "name": "from",
          "type": "address"
        },
        {
          "internalType": "address",
          "name": "to",
          "type": "address"
        },
        {
          "internalType": "uint256",
          "name": "tokenId",
          "type": "uint256"
        }
      ],
      "name": "safeTransferFrom",
      "outputs": [],
      "stateMutability": "nonpayable",
      "type": "function"
    },
    {
      "inputs": [
        {
          "internalType": "address",
          "name": "from",
          "type": "address"
        },
        {
          "internalType": "address",
          "name": "to",
          "type": "address"
        },
        {
          "internalType": "uint256",
          "name": "tokenId",
          "type": "uint256"
        },
        {
          "internalType": "bytes",
          "name": "data",
          "type": "bytes"
        }
      ],
      "name": "safeTransferFrom",
      "outputs": [],
      "stateMutability": "nonpayable",
      "type": "function"
    },
    {
      "inputs": [
        {
          "internalType": "address",
          "name": "operator",
          "type": "address"
        },
        {
          "internalType": "bool",
          "name": "approved",
          "type": "bool"
        }
      ],
      "name": "setApprovalForAll",
      "outputs": [],
      "stateMutability": "nonpayable",
      "type": "function"
    },
    {
      "inputs": [
        {
          "internalType": "bytes4",
          "name": "interfaceId",
          "type": "bytes4"
        }
      ],
      "name": "supportsInterface",
      "outputs": [
        {
          "internalType": "bool",
          "name": "",
          "type": "bool"
        }
      ],
      "stateMutability": "view",
      "type": "function"
    },
    {
      "inputs": [],
      "name": "symbol",
      "outputs": [
        {
          "internalType": "string",
          "name": "",
          "type": "string"
        }
      ],
      "stateMutability": "view",
      "type": "function"
    },
    {
      "inputs": [
        {
          "internalType": "uint256",
          "name": "index",
          "type": "uint256"
        }
      ],
      "name": "tokenByIndex",
      "outputs": [
        {
          "internalType": "uint256",
          "name": "",
          "type": "uint256"
        }
      ],
      "stateMutability": "view",
      "type": "function"
    },
    {
      "inputs": [
        {
          "internalType": "address",
          "name": "owner",
          "type": "address"
        },
        {
          "internalType": "uint256",
          "name": "index",
          "type": "uint256"
        }
      ],
      "name": "tokenOfOwnerByIndex",
      "outputs": [
        {
          "internalType": "uint256",
          "name": "",
          "type": "uint256"
        }
      ],
      "stateMutability": "view",
      "type": "function"
    },
    {
      "inputs": [
        {
          "internalType": "uint256",
          "name": "tokenId",
          "type": "uint256"
        }
      ],
      "name": "tokenURI",
      "outputs": [
        {
          "internalType": "string",
          "name": "",
          "type": "string"
        }
      ],
      "stateMutability": "view",
      "type": "function"
    },
    {
      "inputs": [],
      "name": "totalMinted",
      "outputs": [
        {
          "internalType": "uint256",
          "name": "",
          "type": "uint256"
        }
      ],
      "stateMutability": "view",
      "type": "function"
    },
    {
      "inputs": [],
      "name": "totalSupply",
      "outputs": [
        {
          "internalType": "uint256",
          "name": "",
          "type": "uint256"
        }
      ],
      "stateMutability": "view",
      "type": "function"
    },
    {
      "inputs": [
        {
          "internalType": "address",
          "name": "from",
          "type": "address"
        },
        {
          "internalType": "address",
          "name": "to",
          "type": "address"
        },
        {
          "internalType": "uint256",
          "name": "tokenId",
          "type": "uint256"
        }
      ],
      "name": "transferFrom",
      "outputs": [],
      "stateMutability": "nonpayable",
      "type": "function"
    },
    {
      "inputs": [
        {
          "internalType": "address",
          "name": "from",
          "type": "address"
        },
        {
          "internalType": "address",
          "name": "to",
          "type": "address"
        },
        {
          "internalType": "uint256",
          "name": "tokenId",
          "type": "uint256"
        },
        {
          "internalType": "uint256",
          "name": "salePrice",
          "type": "uint256"
        },
        {
          "internalType": "string",
          "name": "notes",
          "type": "string"
        }
      ],
      "name": "transferWithProvenance",
      "outputs": [],
      "stateMutability": "nonpayable",
      "type": "function"
    },
    {
      "inputs": [
        {
          "internalType": "uint256",
          "name": "tokenId",
          "type": "uint256"
        }
      ],
      "name": "unlockFromAuction",
      "outputs": [],
      "stateMutability": "nonpayable",
      "type": "function"
    }
  ],
  "bytecode": "0x6080346200037d57601f1990601f906001600160401b036200324a38819003848101861684018381118582101762000367578492829160405283396020938491810103126200037d5751926001600160a01b03841684036200037d576200006562000382565b92601484527f4d757a61796564652041756374696f6e204e4654000000000000000000000000818501526200009962000382565b9060048252634d41554360e01b8183015284519684881162000367576000978854966001978881811c911680156200035c575b858210146200034857908187849311620002f5575b50849087831160011462000294578b9262000288575b5050600019600383901b1c191690871b1788555b8251948511620002745785548681811c9116801562000269575b8382101462000255578481116200020d575b5081938511600114620001a457505090829162000187969262000198575b5050600019600383901b1c191690821b1790555b6200017481620003a2565b50620001808162000423565b50620004c6565b50604051612cc59081620005658239f35b01519050388062000155565b8588528188209497908816915b828210620001f5575050918493918762000187989410620001db575b505050811b01905562000169565b015160001960f88460031b161c19169055388080620001cd565b808786978294978701518155019601940190620001b1565b8689528289208580880160051c8201928589106200024b575b0160051c019087905b8281106200023f57505062000137565b8a81550187906200022f565b9250819262000226565b634e487b7160e01b89526022600452602489fd5b90607f169062000125565b634e487b7160e01b88526041600452602488fd5b015190503880620000f7565b90848a9416918c8052868d20928d5b88828210620002de5750508411620002c4575b505050811b0188556200010b565b015160001960f88460031b161c19169055388080620002b6565b8385015186558d97909501949384019301620002a3565b9091508a8052848b208780850160051c8201928786106200033e575b918b91869594930160051c01915b8281106200032f575050620000e1565b8d81558594508b91016200031f565b9250819262000311565b634e487b7160e01b8b52602260045260248bfd5b90607f1690620000cc565b634e487b7160e01b600052604160045260246000fd5b600080fd5b60408051919082016001600160401b038111838210176200036757604052565b6001600160a01b031660008181527fdf7de25b7f1fd6d0b5205f0e18f1f35bd7b8d84cce336588d184533ce43a6f76602052604081205490919060ff166200041f57818052600b6020526040822081835260205260408220600160ff1982541617905533916000805160206200322a8339815191528180a4600190565b5090565b6001600160a01b031660008181527ff70e363b3d7895af770c4a138460777d52eebd3cb9962ccc6b58721f6127bbc860205260408120549091907f9f2df0fed2c77648de5860a4cc508cd0818c85b8b8a1ab4ceeef8d981c8956a69060ff16620004c157808352600b6020526040832082845260205260408320600160ff198254161790556000805160206200322a833981519152339380a4600190565b505090565b6001600160a01b031660008181527fe4a366d2d260c85df48c33cbd3a3b49c347486d97400be56eab541cf0aaeb7e860205260408120549091907ffc15875e223f196de4d28f104664030b8067b4a40d0372ee3095567046e5e0b39060ff16620004c157808352600b6020526040832082845260205260408320600160ff198254161790556000805160206200322a833981519152339380a460019056fe6080604081815260048036101561001557600080fd5b600092833560e01c90816301ffc9a7146118e35750806306fdde031461183b5780630788362914611600578063081812fc146115c5578063095ea7b3146114e957806312f4ea2e1461149f57806318160ddd146114805780631c76a9d1146112f557806322f171ce146111c657806323b872dd146111ae578063248a9ca3146111845780632c32bff81461115d5780632f2ff15d146111345780632f745c59146110b05780633123cd4a14610e8057806336568abe14610e3957806342842e0e14610e0a5780634f6ccce714610db65780635d51917014610afe5780636352211e14610acd57806370a0823114610aa057806372ba8d6e14610a775780637d61528614610a3c57806391d14854146109f657806395d89b411461091357806399071190146106be5780639f77a60514610661578063a217fddf14610646578063a22cb465146105a9578063a2309ff81461058a578063a311c5a91461042b578063b88d4fde146103b9578063c87b56dd14610361578063d539139314610326578063d547741f146102e7578063d5b5240f14610246578063e985e9c5146101f45763f6aacfb1146101c557600080fd5b346101f05760203660031901126101f0578160209360ff923581526011855220541690519015158152f35b8280fd5b50503461024257806003193601126102425760ff81602093610214611ada565b61021c611af0565b6001600160a01b0391821683526005875283832091168252855220549151911615158152f35b5080fd5b5082346102e457602091826003193601126102425792919235815260108352818120908251808584549182815201908194845286842090845b8181106102d05750505081610295910382611a44565b83519485948186019282875251809352850193925b8281106102b957505050500390f35b8351855286955093810193928101926001016102aa565b82548452928801926001928301920161027f565b80fd5b5090346101f057806003193601126101f057610322913561031d600161030b611af0565b93838752600b60205286200154611c11565b611cb7565b5080f35b505034610242578160031936011261024257602090517f9f2df0fed2c77648de5860a4cc508cd0818c85b8b8a1ab4ceeef8d981c8956a68152f35b50919034610242576020366003190112610242576103b592356103838161216d565b5082526006602052610396818320611da1565b9181516103a281611a29565b525191829160208352602083019061199d565b0390f35b838234610242576080366003190112610242576103d4611ada565b6103dc611af0565b604435906064356001600160401b0381116104275736602382011215610427576104249481602461041293369301359101611a80565b9261041e838383611e47565b336121f5565b80f35b8580fd5b50346101f05760a03660031901126101f057803583610448611af0565b6001600160a01b03604435818116968782036105865760643592608435926001600160401b0384116105825761054f61055d899761050e61057095878f9e9c6104b87f708a801500439db3970a794d8089b5ea99c08999da4f3cce811b00ade40c38f19e61057c9c369101611abc565b9c6104c1611bb5565b80825260026020526104d9848484205416151561233f565b8152600f602052208851916104ed836119dd565b84169e8f835260208301528a898301524260608301528b60808301526124c8565b85519283918960208401964292889290606894926bffffffffffffffffffffffff19809260601b16855260601b166014840152602883015260488201520190565b03601f198101835282611a44565b519020878b526010602052828b20612616565b51928392429084612b83565b0390a480f35b8680fd5b8480fd5b505034610242578160031936011261024257602090600c549051908152f35b5090346101f057806003193601126101f0576105c3611ada565b9060243591821515809303610586576001600160a01b03169283156106315750338452600560205280842083855260205280842060ff1981541660ff8416179055519081527f17307eab39ab6107e8899845ad3d59bd9653f200f220920489ca2b5937696c3160203392a380f35b836024925191630b61174360e31b8352820152fd5b50503461024257816003193601126102425751908152602090f35b50346101f05760203660031901126101f057358083526002602052818320546103b5936106ab92849261069e906001600160a01b0316151561233f565b8152600e60205220611da1565b905191829160208352602083019061199d565b5090346101f05760603660031901126101f0576106d9611ada565b6001600160401b0393602435858111610242576106f99036908601611abc565b90604435868111610242576107119036908701611abc565b9061071a611bb5565b6001600160a01b038416936107308515156123e6565b61073c84511515612431565b600c549661074988612475565b600c556107568883612664565b6107608589612a57565b878352602098600d8a5287842091855191821161090057509181836107948b979561078e8c9a989654611d67565b846123a1565b8b601f8211600114610882579181859492600080516020612c70833981519152999a946108609791610877575b508160011b916000199060031b1c19161790555b878352600f8c526108138c8385208b8551926107f0846119dd565b878452830152858583015242606083015261080961249a565b60808301526124c8565b81516000818e0181815260609390931b6bffffffffffffffffffffffff19166014840152602883015242604883015261084f816068840161054f565b5190209187815260108c5220612616565b61086e86519283928361263f565b0390a351908152f35b9050870151386107c1565b8285528c852090601f198316868f5b8282106108e357505092600080516020612c70833981519152999a949260019282610860999896106108ca575b5050811b0190556107d5565b89015160001960f88460031b161c1916905538806108be565b8984015185558e9c508f9b5060019094019392830192018f610891565b634e487b7160e01b855260419052602484fd5b50503461024257816003193601126102425780519082600180549161093783611d67565b808652928281169081156109ce5750600114610972575b505050610960826103b5940383611a44565b5191829160208352602083019061199d565b94508085527fb10e2d527612073b26eecdfd717e6a320cf44b4afac2b0732d9fcbe2b7fa0cf65b8286106109b6575050506109608260206103b5958201019461094e565b80546020878701810191909152909501948101610999565b6103b597508693506020925061096094915060ff191682840152151560051b8201019461094e565b50346101f057816003193601126101f0578160209360ff92610a16611af0565b90358252600b86528282206001600160a01b039091168252855220549151911615158152f35b505034610242578160031936011261024257602090517ffc15875e223f196de4d28f104664030b8067b4a40d0372ee3095567046e5e0b38152f35b50346101f05760203660031901126101f057816103b5936106ab92358152601260205220611da1565b50503461024257602036600319011261024257602090610ac6610ac1611ada565b611d2e565b9051908152f35b5091346102e45760203660031901126102e45750610aed6020923561216d565b90516001600160a01b039091168152f35b5090346101f05760803660031901126101f057610b19611ada565b6001600160401b039360243585811161024257610b399036908601611abc565b6044358681116101f057610b509036908701611abc565b606435878111610db257610b679036908801611abc565b92610b70611bb5565b6001600160a01b03851694610b868615156123e6565b610b9284511515612431565b600c5497610b9f89612475565b600c55610bac8983612664565b610bb6858a612a57565b888352602099600d8b528884208551828111610d9f57610bda8161078e8454611d67565b808d80601f8311600114610d3957508791610d2e575b508160011b916000199060031b1c19161790555b898452600e8b528884209187519182116109005750918183610c2f8c9897969561078e8d9654611d67565b8c98601f8211600114610c98579080600080516020612c70833981519152999a87969594936108609892610c8d575b50508160011b916000199060031b1c1916179055878352600f8c526108138c8385208b8551926107f0846119dd565b015190503880610c5e565b8d90601f1983168488528288209288905b828210610cfd57505091600080516020612c708339815191529a9b8492610860999897969560019510610ce4575b505050811b0190556107d5565b015160001960f88460031b161c19169055388080610cd7565b929497509497999b95989a509181600181928887015181550196019401918e9a9895928e9794929c9a98959c610ca9565b905087015138610bf0565b8489528089209250601f1984169089905b8b838310610d87575050509083600194939210610d6e575b5050811b019055610c04565b89015160001960f88460031b161c191690553880610d62565b60018596839496849301518155019501930190610d4a565b634e487b7160e01b865260418452602486fd5b8380fd5b50346101f05760203660031901126101f057803592600954841015610def57602083610de1866121a8565b91905490519160031b1c8152f35b6044939192519263295f44f760e21b84528301526024820152fd5b5050346102425761042490610e1e36611b06565b91925192610e2b84611a29565b85845261041e838383611e47565b50919034610242578060031936011261024257610e54611af0565b90336001600160a01b03831603610e715750610322919235611cb7565b5163334bd91960e11b81528390fd5b5090346101f05760a03660031901126101f057610e9b611ada565b91610ea4611af0565b9160443591606435906084356001600160401b0381116110ac57610ecb9036908301611abc565b918488526020926002845260018060a01b0392610eef8785888d2054163390612be7565b1561105f57868a526011855260ff868b2054166110425750858952600f84528489208151909487939291156110105781955b8751610f2c816119dd565b868c16968782528b16978884830152858a8301524260608301526080820152610f54916124c8565b865160608b811b6bffffffffffffffffffffffff19908116848401908152918c901b1660148201526028810185905242604882015290806068830103601f1981018252610fa19082611a44565b51902090848c5260109052868b2090610fb991612616565b855191829142610fc99284612b83565b037f708a801500439db3970a794d8089b5ea99c08999da4f3cce811b00ade40c38f191a45191610ff883611a29565b848352611006828286611e47565b61042493336121f5565b865161101b81611a0e565b601581527413dddb995c9cda1a5c081d1c985b9cd9995c9c9959605a1b8282015295610f21565b855162461bcd60e51b815290819061105b908201612b9f565b0390fd5b855162461bcd60e51b8152908101859052602160248201527f41756374696f6e4e46543a2063616c6c6572206e6f7420617574686f72697a656044820152601960fa1b6064820152608490fd5b8780fd5b5091346102e457816003193601126102e4576110ca611ada565b92602435906110d885611d2e565b82101561110857506001600160a01b03909316815260076020908152828220938252928352819020549051908152f35b925163295f44f760e21b81526001600160a01b0390941692840192835260208301525081906040010390fd5b5090346101f057806003193601126101f0576103229135611158600161030b611af0565b611c37565b50346101f05760203660031901126101f0576020928291358152600f845220549051908152f35b50346101f05760203660031901126101f05781602093600192358152600b85522001549051908152f35b83346102e4576104246111c036611b06565b91611e47565b5090346101f057602080600319360112610db2578235926111e5611b3b565b8385526002825282852054611204906001600160a01b0316151561233f565b8385526011825260ff8386205416156112b45750907fdf4c94a15097e4b8fc269559c889af1192dc0dc924490fc68a095ad148b9c2909183855260128152611290611250838720611da1565b928587526011835280872060ff1981541690556012835260008188206112768154611d67565b601f8111611296575b50555192828493845283019061199d565b0390a280f35b818a52858a206112ae91601f0160051c81019061238a565b3861127f565b915162461bcd60e51b815291820152601c60248201527f41756374696f6e4e46543a20746f6b656e206e6f74206c6f636b6564000000006044820152606490fd5b5091346102e45760208060031936011261024257833580835260028252838320546001600160a01b0392919061132e908416151561233f565b8352600f8152838320928354926001600160401b03841161146d5793929091868651926005916113628483851b0186611a44565b81855283850190819787528487209087925b84841061140b57505050505086519582870193838852518094528784818901931b8801019594975b8489106113a95787870388f35b90919293949584806113f9600193603f198c82030188528a51878151168252878482015116848301528681015187830152606080820151908301526080809101519160a08092820152019061199d565b9801940198019791909493929461139c565b85876001928e809e999f9c9a9b9c5190611424826119dd565b8a88541682528a86890154168483015260028801549082015260038701546060820152611452868801611da1565b60808201528152019301930192919a94999a97969597611374565b634e487b7160e01b825260418752602482fd5b5050346102425781600319360112610242576020906009549051908152f35b50346101f05760203660031901126101f057358083526002602052818320546103b5936106ab9284926114dc906001600160a01b0316151561233f565b8152600d60205220611da1565b5090346101f057806003193601126101f057611503611ada565b916024356115108161216d565b331515806115b2575b80611589575b611573576001600160a01b039485169482918691167f8c5be1e5ebec7d5bd14f71427d1e84f3dd0314c0f7b2291e5b200ac8c7c3b9258880a48452602052822080546001600160a01b031916909117905580f35b835163a9fbf51f60e01b81523381850152602490fd5b506001600160a01b03811686526005602090815284872033885290528386205460ff161561151f565b506001600160a01b038116331415611519565b50346101f05760203660031901126101f0579182602093356115e68161216d565b50825283528190205490516001600160a01b039091168152f35b50346101f057816003193601126101f0578035916001600160401b0390602435828111610427576116349036908501611abc565b9261163d611b3b565b8486526020926002845261165d60018060a01b038489205416151561233f565b8587526011845260ff83882054166117fa578451156117b857858752601184528287206001908160ff19825416179055601285528388209286519283116117a557506116b3826116ad8554611d67565b856123a1565b84601f831160011461171e5791808061129095937fcb372c06bd2217b8177162db319359ebc28889630a9e0927fd95eb48499d6870999897958c93611713575b501b916000199060031b1c19161790555b5192828493845283019061199d565b8901519250386116f3565b83895285892091929190601f1983168a5b818110611790575091839161129096947fcb372c06bd2217b8177162db319359ebc28889630a9e0927fd95eb48499d68709a9998969410611777575b5050811b019055611704565b88015160001960f88460031b161c19169055388061176b565b8983015184559285019291880191880161172f565b634e487b7160e01b895260419052602488fd5b5082606492519162461bcd60e51b8352820152601c60248201527f41756374696f6e4e46543a20656d7074792061756374696f6e204944000000006044820152fd5b508280606493519262461bcd60e51b845283015260248201527f41756374696f6e4e46543a20746f6b656e20616c7265616479206c6f636b65646044820152fd5b50503461024257816003193601126102425780519082805461185c81611d67565b808552916001918083169081156109ce575060011461188757505050610960826103b5940383611a44565b80809650527f290decd9548b62a8d60345a988386fc84ba6bc95484008f6362f93160ef3e5635b8286106118cb575050506109608260206103b5958201019461094e565b805460208787018101919091529095019481016118ae565b925050346101f05760203660031901126101f0573563ffffffff60e01b81168091036101f05760209250637965db0b60e01b8114908115611926575b5015158152f35b63780e9d6360e01b811491508115611940575b503861191f565b632483248360e11b81149150811561195a575b5038611939565b6380ac58cd60e01b81149150811561198c575b811561197b575b5038611953565b6301ffc9a760e01b14905038611974565b635b5e139f60e01b8114915061196d565b919082519283825260005b8481106119c9575050826000602080949584010152601f8019910116010190565b6020818301810151848301820152016119a8565b60a081019081106001600160401b038211176119f857604052565b634e487b7160e01b600052604160045260246000fd5b604081019081106001600160401b038211176119f857604052565b602081019081106001600160401b038211176119f857604052565b90601f801991011681019081106001600160401b038211176119f857604052565b6001600160401b0381116119f857601f01601f191660200190565b929192611a8c82611a65565b91611a9a6040519384611a44565b829481845281830111611ab7578281602093846000960137010152565b600080fd5b9080601f83011215611ab757816020611ad793359101611a80565b90565b600435906001600160a01b0382168203611ab757565b602435906001600160a01b0382168203611ab757565b6060906003190112611ab7576001600160a01b03906004358281168103611ab757916024359081168103611ab7579060443590565b3360009081527fe4a366d2d260c85df48c33cbd3a3b49c347486d97400be56eab541cf0aaeb7e860205260409020547ffc15875e223f196de4d28f104664030b8067b4a40d0372ee3095567046e5e0b39060ff1615611b975750565b6044906040519063e2517d3f60e01b82523360048301526024820152fd5b3360009081527ff70e363b3d7895af770c4a138460777d52eebd3cb9962ccc6b58721f6127bbc860205260409020547f9f2df0fed2c77648de5860a4cc508cd0818c85b8b8a1ab4ceeef8d981c8956a69060ff1615611b975750565b80600052600b60205260406000203360005260205260ff6040600020541615611b975750565b90600091808352600b602052604083209160018060a01b03169182845260205260ff60408420541615600014611cb257808352600b6020526040832082845260205260408320600160ff198254161790557f2f8788117e7eff1d82e926ec794901d17c78024a50270940304540a733656f0d339380a4600190565b505090565b90600091808352600b602052604083209160018060a01b03169182845260205260ff604084205416600014611cb257808352600b602052604083208284526020526040832060ff1981541690557ff6391f5c32d9c69d2a47ea670b442974b53935d1edc7fd64eb21e047a839171b339380a4600190565b6001600160a01b03168015611d4e57600052600360205260406000205490565b6040516322718ad960e21b815260006004820152602490fd5b90600182811c92168015611d97575b6020831014611d8157565b634e487b7160e01b600052602260045260246000fd5b91607f1691611d76565b9060405191826000825492611db584611d67565b908184526001948581169081600014611e245750600114611de1575b5050611ddf92500383611a44565b565b9093915060005260209081600020936000915b818310611e0c575050611ddf93508201013880611dd1565b85548884018501529485019487945091830191611df4565b915050611ddf94506020925060ff191682840152151560051b8201013880611dd1565b6001600160a01b038281169391841561215457600094838652602060028152604096848882205416918215159081809261214c575b8061213b575b6121235787835260028152868a8420541698336120d8575b888a1580156120a5575b878652600384528c862080546001019055818652600284528c862080546001600160a01b0319168917905581888d7fddf252ad1be2c89b69c2b068fc378daa952ba7f163c4a11628f55a4df523b3ef8980a4156120345750600954898552600a8352808c862055600160401b811015612020579089611f47611f308460018499989796016009556121a8565b819391549060031b91821b91600019901b19161790565b90555b868b03611fc8575b505080611fc0575b611f93575b505050501692838303611f725750505050565b6064945051926364283d7b60e01b8452600484015260248301526044820152fd5b807f16b85f49bf01212961345d3016c9a531894accf62eb7680f2045d79185cc0ec091a438808481611f5f565b506001611f5a565b611fd59192939450611d2e565b60001981019190821161200c57906008849392878b9652600781528c85208386528152858d862055858552528a8320553880611f52565b634e487b7160e01b84526011600452602484fd5b634e487b7160e01b85526041600452602485fd5b939291908a8714611f4a578a8c8561204b83611d2e565b9188825260088652808220549382526007865280822093838103612083575b508882526008865281205585528252838c812055611f4a565b838352848752818320548184528083852055835260088752818320553861206a565b600082815260046020526040902080546001600160a01b03191690558b8652600384528c86208054600019019055611ea4565b6120e389338c612be7565b611e9a578a898b612104576024915190637e27328960e01b82526004820152fd5b905163177e802f60e01b81523360048201526024810191909152604490fd5b895162461bcd60e51b81528061105b60048201612b9f565b506011815260ff8a84205416611e82565b506001611e7c565b604051633250574960e11b815260006004820152602490fd5b6000818152600260205260409020546001600160a01b0316908115612190575090565b60249060405190637e27328960e01b82526004820152fd5b6009548110156121df5760096000527f6e1540171b6c0c960b71a7020d9f60077f6af931a8bbf590da0223dacf75c7af0190600090565b634e487b7160e01b600052603260045260246000fd5b90939192833b612207575b5050505050565b604051630a85bd0160e11b8082526001600160a01b03938416600483015295831660248201526044810191909152608060648201529492169260209291859061225490608483019061199d565b039483816000978189895af18691816122ff575b506122c9575050503d6000146122c0573d61228281611a65565b906122906040519283611a44565b81528093823d92013e5b825192836122bb57604051633250574960e11b815260048101849052602490fd5b019050fd5b6060925061229a565b919450915063ffffffff60e01b16036122e757503880808080612200565b60249060405190633250574960e11b82526004820152fd5b9091508481813d8311612338575b6123178183611a44565b8101031261058257516001600160e01b031981168103610582579038612268565b503d61230d565b1561234657565b606460405162461bcd60e51b815260206004820152602060248201527f41756374696f6e4e46543a20746f6b656e20646f6573206e6f742065786973746044820152fd5b818110612395575050565b6000815560010161238a565b9190601f81116123b057505050565b611ddf926000526020600020906020601f840160051c830193106123dc575b601f0160051c019061238a565b90915081906123cf565b156123ed57565b606460405162461bcd60e51b815260206004820152602060248201527f41756374696f6e4e46543a206d696e7420746f207a65726f20616464726573736044820152fd5b1561243857565b60405162461bcd60e51b815260206004820152601560248201527441756374696f6e4e46543a20656d7074792055524960581b6044820152606490fd5b60001981146124845760010190565b634e487b7160e01b600052601160045260246000fd5b604051906124a782611a0e565b601282527110d95c9d1a599a58d85d19481b5a5b9d195960721b6020830152565b805490600160401b8210156119f85760018083018083558310156121df57600091825260806004602094600586862091020160018060a01b03808851166bffffffffffffffffffffffff60a01b908184541617835585830191888a01511690825416179055604087015160028201556060870151600382015501940151918251926001600160401b0384116126025761256b846125658854611d67565b886123a1565b8491601f85116001146125a3579394508492919083612598575b50501b916000199060031b1c1916179055565b015192503880612585565b86815285812093958591601f198316915b888383106125e857505050106125cf575b505050811b019055565b015160001960f88460031b161c191690553880806125c5565b8587015188559096019594850194879350908101906125b4565b634e487b7160e01b82526041600452602482fd5b805490600160401b8210156119f857600182018082558210156121df5760005260206000200155565b9091612656611ad79360408452604084019061199d565b91602081840391015261199d565b6040805161267181611a29565b6000808252936001600160a01b03848116949092908515612a3f578287526020936002855280868920541680151591828093612a37575b80612a26575b612a0e57858a5260028752878a205416918215928987898d871597886129db575b848252600383528d822080546001019055838252600283528d822080546001600160a01b031916861790558385877fddf252ad1be2c89b69c2b068fc378daa952ba7f163c4a11628f55a4df523b3ef8580a41561295d5750505050600954878c52600a8952808a8d2055600160401b811015612949578a9392918861275e611f308460018996016009556121a8565b90555b036128f5575b806128ed575b6128c1575b50506128a9573b612786575b505050505050565b826127c4918596979894955180938192630a85bd0160e11b968784523360048501528c6024850152604484015260806064840152608483019061199d565b03818a8a5af1879181612869575b50612832575050503d600014612829573d6127ec81611a65565b906127f984519283611a44565b81528094823d92013e5b83519384612823578251633250574960e11b815260048101859052602490fd5b84925001fd5b60609350612803565b919550915063ffffffff60e01b160361285257505038808080808061277e565b602492505190633250574960e11b82526004820152fd5b9091508481813d83116128a2575b6128818183611a44565b810103126110ac57516001600160e01b0319811681036110ac5790386127d2565b503d612877565b84516339e3563760e11b815260048101889052602490fd5b857f16b85f49bf01212961345d3016c9a531894accf62eb7680f2045d79185cc0ec08b80a48638612772565b50600161276d565b90915061290184611d2e565b60001981019081116129355790899291838c5260078952898c20818d528952878a8d2055878c5260088952898c2055612767565b634e487b7160e01b8b52601160045260248bfd5b634e487b7160e01b8c52604160045260248cfd5b908492918d858099989703612976575b50505050612761565b8190600861298387611d2e565b94868452818152828420549688855260078252838520978781036129ba575b50845252812055528a528c8b812055888a8e8d61296d565b878652888352848620548187528086882055865283835284862055386129a2565b600084815260046020526040902080546001600160a01b0319169055858252600383528d822080546000190190556126cf565b875162461bcd60e51b81528061105b60048201612b9f565b506011875260ff888b2054166126ae565b5060016126a8565b8451633250574960e11b815260048101889052602490fd5b9190916000908082526020916006835260408120908551906001600160401b038211612b6f57612a8b826116ad8554611d67565b8490601f8311600114612aeb57907ff8e1a15aba9398e019f0b49df1a4fde98ee17ae345cb5f6b5e2c27f5033e8ce7969783612ae0575b50508160011b916000199060031b1c19161790555b604051908152a1565b015190503880612ac2565b9196601f198816848452868420935b818110612b5857509160019391897ff8e1a15aba9398e019f0b49df1a4fde98ee17ae345cb5f6b5e2c27f5033e8ce7999a9410612b3f575b505050811b019055612ad7565b015160001960f88460031b161c19169055388080612b32565b929387600181928786015181550195019301612afa565b634e487b7160e01b81526041600452602490fd5b611ad7939260609282526020820152816040820152019061199d565b60809060208152602760208201527f41756374696f6e4e46543a20746f6b656e206973206c6f636b656420666f722060408201526630bab1ba34b7b760c91b60608201520190565b6001600160a01b039182168015159392909184612c06575b5050505090565b81929394501692828414938415612c48575b508315612c2c575b50505038808080612bff565b9091925060005260046020526040600020541614388080612c20565b909350600052600560205260406000208260005260205260ff604060002054169238612c1856fe4f702e06a1f6360f8c5c1f8fdcbc9c3ca58ec1fca317d02ad7ce162c88995108a264697066735822122019f2eb9ce10190f20838737cc4a3589bc92585a993c2149531a0123bfd07a82564736f6c634300081400332f8788117e7eff1d82e926ec794901d17c78024a50270940304540a733656f0d",
  "linkReferences": {},
  "deployedLinkReferences": {}
}